:020000040000FA
:0400000080312728FC
:100008007E1480310B1F09280A2825282E00991EE6
:100018000E280F2825288F1E12281328252820008F
:100028006F088A006E080A00803103102000961CB1
:1000380003140318202823282000961425282000BC
:1000480096107E10090080312928213084008330E1
:100058008500A030860000308700083083313823BF
:100068008031F801F901FA01203084000030850060
:10007800343083313E2380317E1020008031442883
:100088008231F2228031A03032008E0001308F00A0
:100098008B170B17A0308600003087005B30840078
:1000A8000030850008302000D90016001A00D90B4E
:1000B8005928E601E701833131238031003A031DD5
:1000C8006628672886282000E401E50120006408E6
:1000D8005B3E86008701010883310E2380310000D2
:1000E80001302000E4070030E53D6508803AD9007A
:1000F80080305902031D822808306402031C8528B9
:1001080086286A280B307806031D8B288C285F28E0
:100118003A302000D9005908E300A3288231B122DF
:1001280080312000D900DA01630886008701590868
:10013800C03F5A08C13F0230D9005908E307780880
:10014800031DA728A82892288131002180318131F8
:100158006F2180310130200051020E300319500206
:100168000318B728B828BF2866036704031DBD28ED
:10017800BE28BF285D28013051022F3003195002D4
:100188000318C728C828DC2866086704031DCD287B
:10019800CE28DC281F3032000F020318D428D528B7
:1001A8005F2801302000D900590832008F075F28E6
:1001B80001305102303003195002031CE428E528AD
:1001C800EE28023032000F02031CEB28EC28FD2831
:1001D8008F015F2866086704031DF328F428FD28AB
:1001E800013032008F0001302000E6000030E700C7
:1001F8005F285F28803127280C303A3E8600870127
:1002080020004408D800D701403F5707D000413F9D
:10021800583DD10040080F39043A031D1429152907
:1002280026291030F3002730F4005108F600500852
:10023800F5008131DE21813174082000D100730876
:10024800D0006E2940080F39033A031D2C292D29A7
:100258003E29E830F3000330F4005108F600500856
:10026800F5008131DE21813174082000D100730846
:10027800D0006E2940080F39023A031D4429452948
:1002880056296430F3000030F4005108F600500895
:10029800F5008131DE21813174082000D100730816
:1002A800D0006E2940080F39013A031D5C295D29E9
:1002B8006E290A30F3000030F4005108F6005008A7
:1002C800F5008131DE21813174082000D1007308E6
:1002D800D0006E29080010303A3E860087012000C1
:1002E8004808D800D701403F5707D200413F583D42
:1002F800D30042080F39043A031D8329842995291C
:100308001030F3002730F4005308F6005208F500C7
:100318008131DE21813174082000D3007308D200B6
:10032800DD2942080F39033A031D9B299C29AD2971
:10033800E830F3000330F4005308F6005208F500E3
:100348008131DE21813174082000D3007308D20086
:10035800DD2942080F39023A031DB329B429C529FA
:100368006430F3000030F4005308F6005208F5003A
:100378008131DE21813174082000D3007308D20056
:10038800DD2942080F39013A031DCB29CC29DD2983
:100398000A30F3000030F4005308F6005208F50064
:1003A8008131DE21813174082000D3007308D20026
:1003B800DD2908002000D501D6017308740403194B
:1003C800E629E729162AD401D40AF3290130F3359E
:1003D800F40D890BEB290130F7007708D407F41FD7
:1003E800F629F729EA290130D535D60D890BF829E0
:1003F80074087602031D022A73087502031C052A75
:10040800062A0B2A7308F5027408F63B55140130C6
:10041800F436F30C890B0C2A0130D402031D152A7B
:10042800162AF7295608F4005508F30008007A0838
:10043800203E86008701810122001D1D242A252ACD
:10044800302A7A08203E86008701811420006D0832
:100458008A006C080A00823122009D1C342A352A41
:10046800402A7A08203E86008701011520006B0883
:100478008A006A080A0082317A08203E86008701CD
:1004880001080319482A492A502A200069088A00C5
:1004980068080A008231532A8231D9228231080041
:1004A8002E0099121B30F3000230F40083314423EC
:1004B8008231083022009F0090309D0024309E0039
:1004C80019309B009C016430F3000330F400833141
:1004D800502382315C30F3000330F40083314A2327
:1004E80082316030F3000330F400833156238231C7
:1004F8002000B901FA01F901F8012E009916080047
:100508002000960197019801E5309100FF30920094
:10051800BF3093003F303E00CE00FF30C300FD30B7
:10052800B800E501C401B901CF01BA01C501D00184
:10053800FF30BB00FF30C600FF30D100FF30BC00E9
:10054800FF30C700FF30D2000830E80017303D0008
:10055800CB0010303E00A600080078080319B52A21
:10056800B62AB12A7908203E860087010108F300DF
:1005780073082000B90079082B3E8600870101081E
:10058800F3007308F4000130F3007308F9070B3027
:100598007902031CD02AD12AD22AF9012E009912F5
:1005A8000130F80299167408080022001908F000B2
:1005B8007A082B3E86008701700881000130F00020
:1005C8007008FA070B307A02031CEB2AEC2AED2A92
:1005D800FA010130F0007008F80708008331292378
:1005E80082318231842282318331182382318331EE
:1005F8000223823182315422823108006E30200079
:100608009F0079309D009C012E008C1280302000C4
:100618009E000800F3002E000F1E132B142B0F2B27
:10062800730822009A000800623031008D008F01A3
:100638009101023093009201080001340334003420
:10064800023400340334A4340B342F00960197018C
:10065800980199019A019B01080020001C08F300E9
:100668007308F40074080800FE0012001E00FE0B58
:10067800392B0034640080010131890B3F2B003491
:1006880074082000EF007308EE00080074082000CA
:10069800EB007308EA00080074082000ED007308F6
:1006A800EC00080074082000E9007308E80008005E
:1006B80022001D121D1608008231D922833108003C
:0206C800080028
:020000040001F9
:0A000E00EC3FFF3F9F3FFF3FFF3F25
:00000001FF
