:020000040000FA
:0400000080312728FC
:100008007E1480310B1F09280A2825282E00991EE6
:100018000E280F2825288F1E12281328252820008F
:1000280051088A0050080A00803103102000961CED
:1000380003140318202823282000961425282000BC
:1000480096107E1009008031292889308400833079
:1000580085001200D2001200D3001200D400120052
:10006800D5001200D6001200D7001200D8001200E6
:10007800D9007C308400213085007430FE000030C7
:10008800FF0083315E238031F001F101F201F301B9
:10009800F401DA01DB01A03084000030850049302A
:1000A800FE000030FF0083315E2380312030840061
:1000B800013085004930FE000030FF0083315E23A7
:1000C80080317E1020008031692883314E238031B1
:1000D8008B170B17523086000030870038308400A9
:1000E8000030850008302000B20016001A00B20B5C
:1000F8007928C601C701833199238031003A031D4D
:1001080086288728A6282000C401C50120004408A5
:10011800383E86008701010883317623803100004C
:1001280001302000C4070030C53D4508803AB200C0
:1001380080303202031DA22808304402031CA5287F
:10014800A6288A2827307206031DAB28AC287F28EA
:100158007C302000C2002130C300F32883310C23F7
:1001680080312000B200B3014208860043088700AE
:100178003208C03F3308C13F0130C6070030C73DD1
:100188004708803AB20080303202031DCD2804307F
:100198004602031CD028D128DF2820004708803ACF
:1001A800B20080303202031DDB2827304602031CD0
:1001B800DE28DF28E52802302000C2070030C33DD2
:1001C800F32820004618E928EA28EF282230C20739
:1001D8000030C33DF3282030C2020030C33B720810
:1001E800031DF728F828B228C801C90120004908CA
:1001F800F9004808F800823133228031200049088C
:10020800B3004808B200B235B30DCE30B400213087
:10021800B5003208340786003308353D8700483575
:10022800C73E84008501403F803F413F813F013008
:10023800C8070030C93D4908803AB2008030320210
:10024800031D282912304802031C2B292C29FA28BF
:100258002000C801C90120004908B3004808B200BD
:10026800B235B30DCE30B4002130B50032083407B2
:1002780086003308353D8700403FB600413FB70050
:100288000D303702AC3003193602031C4C294D29B6
:100298004E290C154908B3004808B200B235B30D11
:1002A800CE30B4002130B500320834078600330858
:1002B800353D8700403FB600413FB700093037025F
:1002C800C5300319360203186A296B296C298C1565
:1002D8000130C8070030C93D4908803AB200803073
:1002E8003202031D792912304802031C7C297D291A
:1002F8002F298131EE2180317F2880312728103045
:100308002000A8000030A9002000AA01AB01C729DD
:1003180020002A35C73E86008701403FA000413FA4
:10032800A1002A35C93E86008701403FA200413F0F
:10033800A30021082302031DA32920082202031871
:10034800A629A729C3292A35C73E86008701403F29
:10035800A400413FA5002A35C93E860087012A35F9
:10036800C73E84008501403F803F413F813F2A3599
:10037800C93E860087012408C03F2508C13F0130D7
:10038800AA070030AB3D2808FF3EA000FF30293DFA
:10039800A1002108803AA2002B08803A2202031DFE
:1003A800D7292A0820020318DA29DB298C29FF30EB
:1003B8002000A807FF30A93D2908803AA000803016
:1003C8002002031DE929013028020318EC29ED2930
:1003D80088290800813183218131F801F9017908E0
:1003E8002000AD007808AC00AC35AD0DCE30AE00C5
:1003F8002130AF002C082E0786002D082F3D8700DE
:100408002030C73E84008501403F0002B000013122
:10041800413F003BB10000303102963003193002F1
:10042800031C172A182A212A7835473E86000130EE
:1004380087000130C03F0030C13F0130F80700306D
:10044800F93D7908803AAC0080302C02031D2E2A31
:1004580012307802031C312A322AF329080079085D
:100468002000A1007808A000A035A10DA430A200AA
:100478002130A3002008220786002108233D870099
:100488007908A5007808A400A435A50D8230A60037
:100498002130A7002408260784002508273D850069
:1004A800003FA800013FA9002808A900A801403F73
:1004B8002807AB00413F293DAC007908AE00780819
:1004C800AD00AD35AE0DCE30AF002130B0002D08F7
:1004D8002F0786002E08303D87002B08C03F2C08C8
:1004E800C13F08007408A03E8600870181012200F0
:1004F8001D1D7F2A802A8B2A7408A03E860087014A
:10050800811420004F088A004E080A008231220018
:100518009D1C8F2A902A9B2A7408A03E860087017A
:10052800011520004D088A004C080A008231740821
:10053800A03E8600870101080319A32AA42AAB2A32
:1005480020004B088A004A080A008231AE2A83310B
:100558003423823108002E0099127630F8000230D8
:10056800F9008331A0238231083022009F009030A7
:100578009D0024309E0019309B009C01C030F8007B
:100588000330F9008331AC238231B830F8000330EE
:10059800F9008331A6238231BC30F8000330F9001A
:1005A8008331B2238231F101F401F301F2012E000B
:1005B8009916080020008C01960197019801F130E6
:1005C8009100FF309200BF3093003F303E00CE00D4
:1005D800FF30C300F130B800E501C401B901CF0113
:1005E800BA01C501D001FF30BB00FF30C600FF30A3
:1005F800D100FF30BC00FF30C700FF30D200083008
:10060800E80017303D00CB0010303E00A60008007F
:1006180072080319102B112B0C2B7308A03E8600AF
:1006280087010108F8007808F1007308203E860069
:10063800013087000108F8007808F9000130F80057
:100648007808F30727307302031C2B2B2C2B2D2B38
:10065800F3012E0099120130F20299167908080068
:1006680022001908F5007408203E86000130870032
:10067800750881000130F5007508F4072730740209
:10068800031C472B482B492BF4010130F500750852
:10069800F20708008331912383318231DE228331CE
:1006A80083318023833183316A2383318231AF22BE
:1006B800833108006400800101310130FE020030FE
:1006C800FF3B7F087E04031D5F2B00346E30200043
:1006D8009F0079309D009C012E008C1280302000F4
:1006E8009E000800F8002E000F1E7B2B7C2B772B1A
:1006F800780822009A000800623031008D008F01CE
:10070800910102309300920108000134033400344F
:100718000334003411347534C6342F009601970120
:10072800980199019A019B01080020001C08F80013
:100738007808F9007908080079082000D1007808BD
:10074800D000080079082000CD007808CC00080007
:1007580079082000CF007808CE000800790820002A
:10076800CB007808CA00080022001D121D160800D8
:0A07780083313423833108000800A8
:020000040001F9
:0A000E00EC3FFF3F9F3FFF3FFF3F25
:00000001FF
