:020000040000FA
:1000000080312728080008347E1480310B1F09280E
:100010000A2825282E00991E0E280F2825288F1E15
:1000200012281328252823006D088A006C080A006E
:10003000803103102000961C031403182028232865
:10004000200096142528200096107E10090080318B
:100050002928F83084008730850021001200D9005B
:100060001200DA001200DB001200DC001200DD00DA
:100070001200DE001200DF001200E00023008031D9
:1000800003208031EE007C30840021308500743004
:10009000FE000030FF008B31C3238031F801F901ED
:1000A000FA01A0308400003085002530FE000030C9
:1000B000FF008B31C3238031203084000130850064
:1000C0005030FE000030FF008B31C3238031A03060
:1000D0008400013085004830FE000030FF008B3185
:1000E000C323803120308400023085002730FE0099
:1000F0000030FF008B31C32380317E10200080311F
:1001000081288B31F22380318B170B17D930860071
:10011000003087004730840002308500083021001D
:10012000D30016001A00D30B91282400D301D40168
:100130008B3172238031003A031D9F28A028C228EA
:100140002400D101D20124005108473E860002302C
:10015000870001088B318A238031000001302400A0
:10016000D1070030D23D5208803A2100D3008030C0
:100170005302031DBE28083024005102031CC1286D
:10018000C228A32827307806031DC728C828982826
:100190007C302400CF002130D00016298D3112256B
:1001A00080312100D300D40124004F08860050087C
:1001B000870021005308C03F5408C13F013024008C
:1001C000D3070030D43D5408803A2100D30080305A
:1001D0005302031DEE28043024005302031CF128AF
:1001E000F228022924005408803A2100D3008030EC
:1001F0005302031DFE28273024005302031C01294B
:100200000229082902302400CF070030D03D1629EA
:10021000240053180C290D2912292230CF07003051
:10022000D03D16292030CF020030D03B7808031D86
:100230001A291B29CE28D501D601240056082000F2
:10024000A400240055082000A30083318B238031B3
:10025000240056082100D400240055082100D300B2
:10026000D335D40DCE30D5002130D60053085507F4
:1002700086005408563D870024005535473E8400CB
:1002800001308500403F803F413F813F0130D5072D
:100290000030D63D5608803A2100D300803053020A
:1002A000031D5529113024005502031C58295929D2
:1002B0001D292400D501D601240056082100D400B0
:1002C000240055082100D300D335D40DCE30D500FD
:1002D0002130D6005308550786005408563D870044
:1002E000403FD700413FD8000D305802AC300319D1
:1002F0005702031C7C297D297F2920000C1524002E
:1003000056082100D400240055082100D300D3351D
:10031000D40DCE30D5002130D600530855078600C5
:100320005408563D8700403FD700413FD800093070
:100330005802C5300319570203189F29A029A22982
:1003400020008C1501302400D5070030D63D56081A
:10035000803A2100D30080305302031DB2291130AE
:1003600024005502031CB529B6295C298F312A27A0
:10037000803101302400D5000030D6004E308F315E
:10038000952780312000A101A10A01308D313C2543
:10039000803100302100C5008830C6002400560896
:1003A0002100C800240055082100C700E6308C3128
:1003B000E9248031E6308C319E2480312000A10177
:1003C000A10A02308D313C25803100302100C5006A
:1003D0008830C600240055359E3E860001308700D7
:1003E000403F2100C700413FC800E7308C31E9247D
:1003F0008031E7308C319E248031A830F3006130A9
:10040000F4008B319F23803101302400D507003068
:10041000D63D5608803A2100D30080305302031D98
:10042000142A123024005502031C172A182ABE2948
:100430009828803127282000C5003A08CE003B08C4
:10044000CF003C08D0003D08D1003E08D2003F0854
:10045000D3004008D4004108D5004E30860000305B
:100460008700473FC200C21B362A382A0130392A8A
:1004700000302000C300C4014308CC004408CD0074
:100480004C084D040319452A462A642ACE09CF098F
:10049000D009D109D209D309D409D509CE0A031D3F
:1004A000642ACF0A031D642AD00A031D642AD10AD4
:1004B000031D642AD20A031D642AD30A031D642A79
:1004C000D40A031D642AD50A2200EC1B682A692A73
:1004D0006D2AFD30ED05FF30EE056C08803A2000F6
:1004E000C20080304202031D782A013022006B02D4
:1004F00003187B2A7C2A822A01302000C8000030A1
:10050000C9008A2A22006C082000C90022006B085A
:100510002000C80022006A082000CB0022006908E1
:100520002000CA004C084D04031D972A982A9D2AD2
:1005300022006D1D9C2A9D2AA22AFF302000CA0796
:10054000FF30CB3D1F302000D6000030D700230005
:10055000E501132BFF302000D607FF30D73D0A30CE
:10056000A000A101A201A301A401A501A601A70168
:100570004E08A8004F08A9005008AA005108AB0077
:100580005208AC005308AD005408AE005508AF0047
:100590008531C225823120002108F7002008F600AD
:1005A0008C31822482317608303E2000C200560809
:1005B000C63E86000130870042088100FF30C80730
:1005C000FF30C93DFF30CA07FF30CB3D0A30A000E5
:1005D000A101A201A301A401A501A601A7014E0842
:1005E000A8004F08A9005008AA005108AB00520803
:1005F000AC005308AD005408AE005508AF0084317C
:10060000BE24823120002008CE002108CF0022081D
:10061000D0002308D1002408D2002508D3002608E2
:10062000D4002708D50020005708803AC200803047
:100630004202031D1D2B01305602031C202B212BCF
:100640004E2B20004E084F04500451045204530412
:1006500054045504031D2D2B2E2BAA2A4908803A39
:10066000C20080304202031D372B013048020318BC
:100670003A2B3B2BAA2A20004B08803AC20080303C
:100680004202031D452B01304A02031C482B492B13
:100690004E2B2200ED184D2B4E2BAA2A20004C0881
:1006A0004D04031D542B552B5A2B22006D1D592B25
:1006B0005A2B772BFF302000D607FF30D73D4C0850
:1006C0004D04031D642B652B6A2B2B30C6000030B4
:1006D000C7006E2B2D30C6000030C7004608C20090
:1006E0005608C63E8600013087004208810020007F
:1006F0005608C63EC2004208AD004B08AF004A088B
:10070000AE0045088E31D126823120002E08BB0074
:100710002D08BA00080020002408A6002308A50020
:10072000A535A60DA430A7002130A800250827076D
:1007300086002608283D87002408AA002308A9006F
:10074000A935AA0D8230AB002130AC0029082B0757
:1007500084002A082C3D8500003FAD00013FAE001B
:100760002D08AE00AD01403F2D07B000413F2E3DAA
:10077000B1002408B3002308B200B235B30DCE3067
:10078000B4002130B5003208340786003308353D07
:1007900087003008C03F3108C13FCA308600213091
:1007A000870001080F39043A031DD72BD82B092CD9
:1007B0001030F3002730F4002408A6002308A50019
:1007C000A535A60DCE30A7002130A80025082707A3
:1007D00086002608283D8700403FF500413FF6008F
:1007E0008E314226833120002408AA002308A90064
:1007F000A935AA0DCE30AB002130AC0029082B075B
:1008000086002A082C3D87007308C03F7408C13F4A
:10081000BD2CCA3086002130870001080F39033A09
:10082000031D132C142C452CE830F3000330F40086
:100830002408A6002308A500A535A60DCE30A700E4
:100840002130A8002508270786002608283D8700B4
:10085000403FF500413FF6008E31422683312000B3
:100860002408AA002308A900A935AA0DCE30AB00A0
:100870002130AC0029082B0786002A082C3D870070
:100880007308C03F7408C13FBD2CCA3086002130B8
:10089000870001080F39023A031D4F2C502C812C80
:1008A0006430F3000030F4002408A6002308A500FB
:1008B000A535A60DCE30A7002130A80025082707B2
:1008C00086002608283D8700403FF500413FF6009E
:1008D0008E314226833120002408AA002308A90073
:1008E000A935AA0DCE30AB002130AC0029082B076A
:1008F00086002A082C3D87007308C03F7408C13F5A
:10090000BD2CCA3086002130870001080F39013A1A
:10091000031D8B2C8C2CBD2C0A30F3000030F4000E
:100920002408A6002308A500A535A60DCE30A700F3
:100930002130A8002508270786002608283D8700C3
:10094000403FF500413FF6008E31422683312000C2
:100950002408AA002308A900A935AA0DCE30AB00AF
:100960002130AC0029082B0786002A082C3D87007F
:100970007308C03F7408C13FBD2C08002000B101BE
:100980002030860000308700473FF300F31FC92C5A
:10099000CA2CEC2C2000A009A109A209A309A409D2
:1009A000A509A609A709A00A031DE92CA10A031D90
:1009B000E92CA20A031DE92CA30A031DE92CA40AB1
:1009C000031DE92CA50A031DE92CA60A031DE92C29
:1009D000A70A2000B101B10A283086000030870044
:1009E000473FF300F31FF52CF62C1A2D2000A80921
:1009F000A909AA09AB09AC09AD09AE09AF09A80A52
:100A0000031D152DA90A031D152DAA0A031D152D59
:100A1000AB0A031D152DAC0A031D152DAD0A031DD0
:100A2000152DAE0A031D152DAF0A0130F300730812
:100A30002000B10632308600003087000830F30015
:100A400000301E00F30B212D200020082104220479
:100A5000230424042504260427040319302D312DF2
:100A60008D2DB001B00A402DA035A10DA20DA30D12
:100A7000A40DA50DA60DA70D0130F3007308B00756
:100A8000A71F432D442D342DB235B30DB40DB50D34
:100A9000B60DB70DB80DB90D27082F02031D6A2D2D
:100AA00026082E02031D6A2D25082D02031D6A2D1E
:100AB00024082C02031D6A2D23082B02031D6A2D16
:100AC00022082A02031D6A2D21082902031D6A2D0E
:100AD00020082802031C6D2D6E2D7F2D2008A802F2
:100AE0002108A93B2208AA3B2308AB3B2408AC3BC6
:100AF0002508AD3B2608AE3B2708AF3B3214A7368E
:100B0000A60CA50CA40CA30CA20CA10CA00C0130EB
:100B1000B002031D8C2D8D2D442D31080319912D0C
:100B2000922DB02DB209B309B409B509B609B709B8
:100B3000B809B909B20A031DB02DB30A031DB02DBF
:100B4000B40A031DB02DB50A031DB02DB60A031D4E
:100B5000B02DB70A031DB02DB80A031DB02DB90A78
:100B600020003208A0003308A1003408A200350894
:100B7000A3003608A4003708A5003808A6003908E5
:100B8000A7000800F5012830860000308700473FA5
:100B9000F300F31FCC2DCD2DEE2D2000A809A909BF
:100BA000AA09AB09AC09AD09AE09AF09A80A031D32
:100BB000EC2DA90A031DEC2DAA0A031DEC2DAB0A8E
:100BC000031DEC2DAC0A031DEC2DAD0A031DEC2D0D
:100BD000AE0A031DEC2DAF0AF501F50A20308600A0
:100BE00000308700473FF300F31FF72DF82D172E35
:100BF0002000A009A109A209A309A409A509A60921
:100C0000A709A00A031D172EA10A031D172EA20A69
:100C1000031D172EA30A031D172EA40A031D172E4A
:100C2000A50A031D172EA60A031D172EA70A2000CA
:100C30002008210422042304240425042604270474
:100C40000319232E242E772EF401F40A332EA03517
:100C5000A10DA20DA30DA40DA50DA60DA70D01308C
:100C6000F3007308F407A71F362E372E272E270808
:100C70002F02031D552E26082E02031D552E250872
:100C80002D02031D552E24082C02031D552E23086A
:100C90002B02031D552E22082A02031D552E210862
:100CA0002902031D552E20082802031C582E592EF8
:100CB000692E2008A8022108A93B2208AA3B230884
:100CC000AB3B2408AC3B2508AD3B2608AE3B2708D0
:100CD000AF3BA736A60CA50CA40CA30CA20CA10C30
:100CE000A00C0130F402031D762E772E372E7508E6
:100CF00003197B2E7C2E9A2EA809A909AA09AB09F3
:100D0000AC09AD09AE09AF09A80A031D9A2EA90ABC
:100D1000031D9A2EAA0A031D9A2EAB0A031D9A2EB2
:100D2000AC0A031D9A2EAD0A031D9A2EAE0A031DAE
:100D30009A2EAF0A20002808A0002908A1002A083E
:100D4000A2002B08A3002C08A4002D08A5002E0843
:100D5000A6002F08A70008002000E700580886001A
:100D60008701403FDA00413FDB005A0884005B08FE
:100D700085001200253A031DBE2EBF2E632F580892
:100D8000860087010130810741310318810A220062
:100D9000E901EA01ED01EE01FF30EB00FF30EC006C
:100DA0002000580886008701403FDA00413FDB0001
:100DB0005A0884005B0885001200643A0319E12E8A
:100DC000E22EF32E580886008701403FDA00413FAB
:100DD000DB005A0884005B0885001200693A031D95
:100DE000F22EF32E2E2F580886008701013081073E
:100DF00041310318810A59088600870101088400DF
:100E0000850102308107003FDA00013FDB005A080C
:100E1000DF005B08E000890D893B8909E100E20001
:100E2000E300E400E500E6005F08BA006008BB00EC
:100E30006108BC006208BD006308BE006408BF0012
:100E40006508C0006608C100670882311B22863130
:100E500020003B08D9003A08D800862F58088600A1
:100E60008701403FDA00413FDB005A0884005B08FD
:100E700085001200253A031D3E2F3F2F582F58089A
:100E8000860087010130810741310318810A25302E
:100E9000F5000030F6006708DA005A08F7008E31D6
:100EA0007F26863101302000D8000030D900862FFF
:100EB0005808860087010130810741310318810AF3
:100EC000D801D901862F580886008701403FDA00F3
:100ED000413FDB005A0884005B0885000008DC0005
:100EE000DD015C08F5005D08F6006708DE005E08BD
:100EF000F7008E317F268631200058088600870152
:100F00000130810741310318810A522F0800103047
:100F10002000A4000030A5002000A601A701D12FC9
:100F200020002635473E860001308700403FF30011
:100F3000413FF4002635493E860001308700403F9E
:100F4000F500413FF60074087602031DA92F7308CF
:100F500075020318AC2FAD2FCD2F2635473E8600E6
:100F600001308700403FA000413FA1002635493EA7
:100F70008600013087002635473E84000130850019
:100F8000403F803F413F813F2635493E860001304A
:100F900087002008C03F2108C13F0130A60700306C
:100FA000A73D2408FF3EF300FF30253DF400740800
:100FB000803AF5002708803A7502031DE12F2608C4
:100FC00073020318E42FE52F902FFF302000A407B1
:100FD000FF30A53D2508803AF30080307302031DE1
:100FE000F32F013024020318F62FF72F8C2F08005F
:100FF0000134033400340334003411347534C634FE
:06100000253464340034C5
:101680008C314E248B31080022001D121D160800DB
:101690008B31AB238B312300111408008B31AB232A
:1016A0008B3123001115080074082400D80073083A
:1016B000D700080074082300EB007308EA00080054
:1016C00074082300E9007308E80008007408230088
:1016D000ED007308EC000800F40074088B318A23D5
:1016E0008B31080020001C08F3007308F400740814
:1016F00008002F0096019701980199019A019B011A
:101700000800623031008D008F019101023093009A
:1017100092010800F3002E000F1E8F2B902B8B2BB5
:10172000730822009A0008002830230090009101DD
:101730008F170F1706308D00FF308E000800A42B86
:101740000130F3020030F43B73087404031DA92B2D
:10175000AA2BA02B080023000F19AF2BB02BAB2B0B
:1017600011081F39031DB52BB62BAB2B08006E30AB
:1017700020009F0079309D009C012E008C1280304B
:1017800020009E0008006400800101310130FE024B
:101790000030FF3B7F087E04031DC42B0034F300A0
:1017A0008B31AB238B31730823008C002E000F1C70
:1017B000DA2BDB2BD62B0F10230011080800F400C6
:1017C0008B3148238B31230044088B31CF238B315D
:1017D000740823006E048B31CF238B318B314E2361
:1017E0008B3108008B3179238B318D31CC258B31B6
:1017F0008B3181238B318B31B7238B318D316B252D
:101800008B318B3194238B310800F600230045087F
:10181000F5007508F604760804388B31DF238C3127
:101820007608FB398B31DF238C313230F300003006
:10183000F4008B319F238C3108002000A00023008E
:10184000C50120002008F0398C3105248C3120009E
:101850002008F7000330F735FF3E031D2B2C7735AA
:10186000F0398C3105248C3108002000A0002300C1
:10187000C501C50A20002008F0398C3105248C31BF
:1018800020002008F7000330F735FF3E031D442CED
:101890007735F0398C3105248C3108002200190885
:1018A000F0007A08203E8600023087007008810030
:1018B0000130F0007008FA0727307A02031C612C0F
:1018C000622C632CFA010130F0007008F807080060
:1018D000F7007708F5007508F600722C0130F50066
:1018E0007508F70777088600013087000108031D97
:1018F0007A2C7B2C6E2C76087702F300F401F31B14
:10190000F40308007708803A2000B00080303002ED
:10191000031D8C2C0130760203188F2C902C9D2CEB
:1019200076092000B0007709B100B00A0319B10AA6
:101930003008F6003108F7009D2C08002000A400B4
:10194000A201A301B32C22082407A10021088600CC
:101950000130870001088C3135248C3101302000A2
:10196000A2070030A33D22082407A1002108860019
:10197000013087000108031DBE2CBF2CA32C0800DA
:101980002000AC00AA01AB01D82C2908A600A701B1
:101990002608F5002708F6002508A8002808F70003
:1019A0008E317F268C3101302000AA070030AB3DFC
:1019B0002A082C07A60026088600013087000108A7
:1019C000A7002708A9002908031DE72CE82CC52C2F
:1019D00008002100CD00C730C9004908CC004D08DF
:1019E000C9004908CE00CF01D001D101D20146087B
:1019F0002000E900210045082000E800CC3021004B
:101A0000C90049082000EA00CE308D319B258C3179
:101A100021004F084D07C9004908860001308700A2
:101A20008101080078080319162D172D122D790849
:101A3000203E8600013087000108F3007308210072
:101A4000C4007908203E8600023087000108F300B8
:101A50007308F4000130F3007308F90727307902A6
:101A6000031C332D342D352DF9012E009912013030
:101A7000F8029916740808002000A400572D2108C8
:101A8000BF3E8C311D248D316A2D2108933E8C314F
:101A90001D248D316A2D2108D33E8C311D248D31BA
:101AA0006A2D21087F3E8C311D248D316A2D24083A
:101AB000A200A3012308003A03195F2D512D22082B
:101AC000023A03193F2D013A0319452D073A03192C
:101AD0004B2D512D08002E0099120530F3000E30C9
:101AE000F4008B3166238D31083022009F00903046
:101AF0009D0024309E0019309B009C010230F300B1
:101B00000030F4008B315A238D314430F3000B3018
:101B1000F4008B3160238D314030F3000B30F40042
:101B20008B3154238D312100C401FA01F901F801F0
:101B30002E00991608002000ED006908EF006808E3
:101B4000EE002300C201C301B92D6E30EB006B081B
:101B5000D8006A08EC006C08D9006D088631AC2604
:101B60008D31200058082300C207200059082300A7
:101B7000C33D20006E0884006F0885001200031D1D
:101B8000C22DC32DA52D230043082000E90023000A
:101B900042082000E800080020008C01960197010F
:101BA0009801F1309100FF309200BF309300273050
:101BB0003E00CE00FF30C300F130B800E501C401A3
:101BC000B901CF01BA01C501D001FF30BB00FF3020
:101BD000C600FF30D100FF30BC00FF30C700FF302F
:101BE000D2000830E80017303D00CB0010303E0036
:101BF000A60013303D00C50014303E00A300153090
:101C0000A40014303D00C60008007A08203E86007B
:101C100001308700810122001D1D0F2E102E1C2E69
:101C20007A08203E860001308700811423006B086B
:101C30008A006A080A008E3122009D1C202E212E67
:101C40002D2E7A08203E86000130870001152300E2
:101C500069088A0068080A008E317A08203E8600EA
:101C60000130870001080319362E372E3E2E24003E
:101C700058088A0057080A008E31412E8C314E24B4
:101C80008E3108002000A101A20173087404031919
:101C90004A2E4B2E7A2EA001A00A572E0130F33582
:101CA000F40D890B4F2E0130F7007708A007F41FC1
:101CB0005A2E5B2E4E2E0130A135A20D890B5C2EC3
:101CC00074087602031D662E73087502031C692EC4
:101CD0006A2E6F2E7308F5027408F63B211401304A
:101CE000F436F30C890B702E0130A002031D792EFF
:101CF0007A2E5B2E2208F4002108F30008007708F2
:101D00000319832E842E892E7708031D882E892E91
:101D10008E2E75088B316C238E31D02E7708033EC2
:101D200086008701160001040319972E982EB62EFF
:101D30007708033E86008701403F2000A000413F16
:101D4000A100770A86008701403FA200413FA3001F
:101D50002308803AA4002108803A2402031DB22EF1
:101D6000200822020318B52EB62ED02E75082000AA
:101D7000A000770886008701770A840085010008A3
:101D80000107A1002108860001308700200881009A
:101D9000770A860087010130810741310318810AE3
:101DA00008002000B50022006D1CD72ED82EE12E91
:101DB00020003508B0003008A5002D088C31C02463
:101DC0008E312000AF1BE52EE62EEB2E2F08B4003F
:101DD0002E08B300ED2EB301B401B101B201012F01
:101DE0002030F5000030F60020003508B000300843
:101DF000F7008E317F268E3101302000B107003090
:101E0000B23D3208803AB0003408803A3002031DF7
:101E10000B2F33083102031C0E2F0F2FF02E220040
:101E20006D18132F142F1D2F20003508B000300817
:101E3000A5002D088C31C0248E3120002D088C3156
:101E400068248E31200033087307AD003408743DD8
:101E5000AE000800873187278F312000AE01AF0127
:101E600020002F08A9002E08A800A835A90DCE3003
:101E7000AA002130AB0028082A07860029082B3D3C
:101E800087002030473E840001308500403F00023B
:101E9000AC000131413F003BAD0000302D029630D7
:101EA00003192C02031C552F562F5E2F2E35A03EF2
:101EB000860087010130C03F0030C13F2F08A900D4
:101EC0002E08A800A835A90DCE30AA002130AB00FD
:101ED00028082A07860029082B3D87002030473E26
:101EE000840001308500403F0002AC000131413FD9
:101EF000003BAD002E35A03E8600013087002C0847
:101F0000C03F2D08C13F0130AE070030AF3D2F0864
:101F1000803AA80080302802031D902F11302E0235
:101F2000031C932F942F302F08002000A2002208BA
:101F3000A10021082300C40000308B31DF238F3142
:101F4000B830F3000B30F4008B319F238F31033016
:101F50008C311D248F31F430F3000130F4008B31CB
:101F60009F238F3103308C311D248F31F430F300E7
:101F70000130F4008B319F238F3103308C311D24CD
:101F80008F31F430F3000130F4008B319F238F3117
:101F900002308C311D248F31F430F3000130F40015
:101FA0008B319F238F3128308C311D248F31883025
:101FB000F3001330F4008B319F238F310C308C31C0
:101FC0001D248F318830F3001330F4008B319F23B0
:101FD0008F3101308C311D248F318830F300133064
:101FE000F4008B319F238F3106308C311D248F31CB
:101FF0008830F3001330F4008B319F238F310800B9
:020000040001F9
:0A000E00EC3FFF3F9F3FFF3FFF3F25
:00000001FF
