:020000040000FA
:0400000080312728FC
:100008007E1480310B1F09280A2825282E00991EE6
:100018000E280F2825288F1E12281328252820008F
:1000280051088A0050080A00803103102000961CED
:1000380003140318202823282000961425282000BC
:1000480096107E10090080312928A330840083305F
:1000580085001200D2001200D3001200D400120052
:10006800D5001200D6001200D7001200D8001200E6
:10007800D9002230840021308500CE30FE000030C7
:10008800FF00833178238031F801F901FA01DA01A0
:10009800DB01DC01DD01A030840000308500453043
:1000A800FE000030FF008331782380312030840047
:1000B800013085004530FE000030FF008331782391
:1000C80080317E10200081319C2920002408A60060
:1000D8002308A500A535A60D6830A7002130A80083
:1000E8002508270786002608283D87002408AA0037
:1000F8002308A900A935AA0D2830AB002130AC008F
:1001080029082B0784002A082C3D8500003FAD00F4
:10011800013FAE002D08AE00AD01403F2D07B000F5
:10012800413F2E3DB1002408B3002308B200B23588
:10013800B30DB030B4002130B50032083407860062
:100148003308353D87003008C03F3108C13FAC3027
:1001580086002130870001080F39043A031DB528AD
:10016800B628E7281030F3002730F4002408A6004A
:100178002308A500A535A60DB030A7002130A8009A
:100188002508270786002608283D8700403FF500F8
:10019800413FF60082315222803120002408AA0013
:1001A8002308A900A935AA0DB030AB002130AC0056
:1001B80029082B0786002A082C3D87007308C03FB2
:1001C8007408C13F9B29AC308600213087000108A4
:1001D8000F39033A031DF128F2282329E830F300E8
:1001E8000330F4002408A6002308A500A535A60DB1
:1001F800B030A7002130A800250827078600260868
:10020800283D8700403FF500413FF60082315222E9
:10021800803120002408AA002308A900A935AA0DC6
:10022800B030AB002130AC0029082B0786002A0823
:100238002C3D87007308C03F7408C13F9B29AC3030
:1002480086002130870001080F39023A031D2D2945
:100258002E295F296430F3000030F4002408A6003A
:100268002308A500A535A60DB030A7002130A800A9
:100278002508270786002608283D8700403FF50007
:10028800413FF60082315222803120002408AA0022
:100298002308A900A935AA0DB030AB002130AC0065
:1002A80029082B0786002A082C3D87007308C03FC1
:1002B8007408C13F9B29AC308600213087000108B3
:1002C8000F39013A031D69296A299B290A30F3006D
:1002D8000030F4002408A6002308A500A535A60DC3
:1002E800B030A7002130A800250827078600260877
:1002F800283D8700403FF500413FF60082315222F9
:10030800803120002408AA002308A900A935AA0DD5
:10031800B030AB002130AC0029082B0786002A0832
:100328002C3D87007308C03F7408C13F9B29080013
:100338008331682381318B170B17523086000030C8
:100348008700383084000030850008302000B6006F
:1003580016001A00B60BAC29C201C3018331B323BE
:100368008131003A031DB929BA29D9292000C601CB
:10037800C70120004608383E8600870101088331FE
:1003880090238131000001302000C6070030C73DAE
:100398004708803AB60080303602031DD529083058
:1003A8004602031CD829D929BD2945307806031DE2
:1003B800DE29DF29B22922302000C4002130C500FF
:1003C8002E2A8331252381312000B600B701440845
:1003D8008600450887003608C03F3708C13F01300E
:1003E800C2070030C33D4308803AB6008030360269
:1003F800031D002A04304202031C032A042A122A7D
:1004080020004308803AB60080303602031D0E2AC9
:1004180043304202031C112A122A182A02302000F3
:10042800C4070030C53D2E2A200044088600450830
:100438008700403FB600413FB7003618242A252AD6
:100448002A2A4030C4070030C53D2E2A3E30C40257
:100458000030C53B7808031D322A332AE529C80134
:10046800C90120004908A4004808A3008031692078
:10047800813101302000C8070030C93D4908803A61
:10048800B60080303602031D4B2A20304802031C78
:100498004E2A4F2A352AB229803127282000A10167
:1004A800A2017308740403195A2A5B2A8A2AA00134
:1004B800A00A672A0130F335F40D890B5F2A013051
:1004C800F7007708A007F41F6A2A6B2A5E2A013012
:1004D800A135A20D890B6C2A74087602031D762AB1
:1004E80073087502031C792A7A2A7F2A7308F50291
:1004F8007408F63B21140130F436F30C890B802A7A
:100508000130A002031D892A8A2A6B2A2208F400D6
:100518002108F30008007A08A03E860087018101BF
:1005280022001D1D982A992AA42A7A08A03E86002E
:100538008701811420004F088A004E080A00823182
:1005480022009D1CA82AA92AB42A7A08A03E86005F
:100558008701011520004D088A004C080A008231E5
:100568007A08A03E8600870101080319BC2ABD2A23
:10057800C42A20004B088A004A080A008231C72A88
:1005880083314E23823108002E0099128F30F300F8
:100598000230F4008331BA238231083022009F00F0
:1005A80090309D0024309E0019309B009C01DA3069
:1005B800F3000330F4008331C6238231D230F300D4
:1005C8000330F4008331C0238231D630F300033086
:1005D800F4008331CC2382312000DD01FA01F901D6
:1005E800F8012E009916080020009601970198013D
:1005F800E5309100FF309200BF3093003F303E005D
:10060800CE00FF30C300FD30B800E501C401B901D8
:10061800CF01BA01C501D001FF30BB00FF30C600D1
:10062800FF30D100FF30BC00FF30C700FF30D200E0
:100638000830E80017303D00CB0010303E00A6001F
:10064800080078080319292B2A2B252B7908A03EA6
:10065800860087010108F30073082000DD0079088F
:10066800203E8600013087000108F3007308F4007B
:100678000130F3007308F90745307902031C452B54
:10068800462B472BF9012E0099120130F8029916D2
:100698007408080022001908F0007A08203E860035
:1006A80001308700700881000130F0007008FA07F7
:1006B80045307A02031C612B622B632BFA0101304F
:1006C800F0007008F80708008331AB2383318231CA
:1006D800F822833183319A23833183318423833110
:1006E8008231C82283310800640080010131013061
:1006F800FE020030FF3B7F087E04031D792B003487
:100708006E3020009F0079309D009C012E008C12D5
:10071800803020009E000800F3002E000F1E952B4D
:10072800962B912B730822009A0008006230310042
:100738008D008F019101023093009201080001346D
:1007480003340034033400342034B43412342F001A
:1007580096019701980199019A019B0108002000D0
:100768001C08F3007308F4007408080074082000DB
:10077800D1007308D000080074082000CD00730869
:10078800CC00080074082000CF007308CE000800D1
:1007980074082000CB007308CA00080022001D124C
:0E07A8001D16080083314E238331080008001F
:020000040001F9
:0A000E00EC3FFF3F9F3FFF3FFF3F25
:00000001FF
