:020000040000FA
:1000000080312728080008347E1480310B1F09280E
:100010000A2825282E00991E0E280F2825288F1E15
:1000200012281328252824004E088A004D080A00AB
:10003000803103102000961C031403182028232865
:10004000200096142528200096107E10090080318B
:100050002928083084008930850022001200E80039
:100060001200E9001200EA001200EB001200EC009E
:100070001200ED001200EE001200EF0024008031AB
:1000800003208031D1007C30840021308500743021
:10009000FE000030FF008731F4278031F801F901BC
:1000A000FA01A0308400003085002830FE000030C6
:1000B000FF008731F4278031203084000130850033
:1000C0004830FE000030FF008731F4278031A03037
:1000D0008400013085005030FE000030FF00873181
:1000E000F427803120308400023085002730FE0064
:1000F0000030FF008731F42780317E1020008031EE
:1001000081288931812180318B170B176830860057
:1001100001308700DE308400003085000830210087
:10012000D80016001A00D80B91282100EE01EF012B
:100130008831F9208031003A031D9F28A028BF286C
:100140002100EC01ED0121006C08DE3E86008701F4
:100150000108893119218031000001302100EC07AC
:100160000030ED3D6D08803AD80080305802031D04
:10017000BB2808306C02031CBE28BF28A3282730E8
:100180007806031DC428C52895287C302100EA0084
:100190002130EB008230E6002130E700A430E80097
:1001A0002130E90034298A31752280312100D800BC
:1001B000D9016A0886006B0887005808C03F5908B3
:1001C000C13F0130EE070030EF3D6F08803AD800A4
:1001D00080305802031DEE2804306E02031CF12803
:1001E000F228002921006F08803AD8008030580298
:1001F000031DFC2827306E02031CFF280029062956
:1002000002302100EA070030EB3D342904302100A0
:100210006E066F04031D0D290E2913296708EB00D4
:100220006608EA00342905306E066F04031D19299B
:100230001A291F296908EB006808EA0034296E189A
:10024000222923292C290230E6070030E73D6708E0
:10025000EB006608EA0034290230E8070030E93D87
:100260006908EB006808EA007808031D3829392975
:10027000D3282400CF01D001240050082000A4007E
:1002800024004F082000A3008531BD2580312400C3
:1002900050082100D90024004F082100D800D8358B
:1002A000D90DCE30DA002130DB0058085A0786001D
:1002B00059085B3D870024004F35423E84000130E1
:1002C0008500403F803F413F813F0130CF070030F4
:1002D000D03D5008803A2100D80080305802031DDC
:1002E0007429113024004F02031C772978293C29F6
:1002F0002400CF01D001240050082100D90024009F
:100300004F082100D800D835D90DCE30DA00213081
:10031000DB0058085A07860059085B3D8700403FBC
:10032000DC00413FDD000D305D02AC3003195C02A2
:10033000031C9B299C299E2920000C152400500891
:100340002100D90024004F082100D800D835D90D4C
:10035000CE30DA002130DB0058085A0786005908F1
:100360005B3D8700403FDC00413FDD0009305D021E
:10037000C53003195C020318BE29BF29C12920001A
:100380008C1501302400CF070030D03D5008803A52
:100390002100D80080305802031DD12911302400DB
:1003A0004F02031CD429D5297B298C31F2248031BA
:1003B0004E308D315D25803101302400CF0000307A
:1003C000D0008931462180312000A101A10A0130ED
:1003D0008A31CA22803106302000A1008830A20074
:1003E0008A312D22803103302100D80058082000A6
:1003F000A10001308A31CA228031EF302100C800CB
:100400000130C9000330CA008830CB0024005008F6
:100410002100CD0024004F082100CC008A319F220A
:100420008031EF302000A1000130A2008A312D225E
:10043000803105302100D80058082000A10001308B
:100440008A31CA2280310B302000A1008830A200FE
:100450008A312D22803106302100D8005808200032
:10046000A10001308A31CA228031C4302100C80085
:100470000030C9000330CA008830CB00E830F300F8
:100480000330F400240050082100D90024004F0854
:100490002100D800D835D90DCC30DA002130DB006E
:1004A00058085A07860059085B3D8700403FF50011
:1004B000413FF6008C310524803174082100CD00C5
:1004C0007308CC008A319F228031C4302000A10003
:1004D0000030A2008A312D22803107302100D8005F
:1004E00058082000A10001308A31CA228031093029
:1004F0002000A1008830A2008A312D2280310830EE
:100500002100D80058082000A10001308A31CA22F9
:100510008031C4302100C8000030C9000330CA0057
:100520008830CB00E830F3000330F400240050089A
:100530002100D90024004F082100D800D835D90D5A
:10054000CC30DA002130DB0058085A078600590801
:100550005B3D8700403FF500413FF6008B315A2359
:10056000803174082100CD007308CC008A319F22AD
:100570008031C4302000A1000030A2008A312D2239
:1005800080310B302100D80058082000A100013034
:100590008A31CA2280310F302000A1008830A200A9
:1005A0008A312D2280312000A101A10A02308A3136
:1005B000CA2280310D302000A1008830A2008A318B
:1005C0002D22803102302100D80058082000A100DF
:1005D00002308A31CA228031EF302000A100013080
:1005E000A2008A312D22803104302100D800580821
:1005F0002000A10002308A31CA2280310B30200055
:10060000A1008830A2008A312D22803105302100DE
:10061000D80058082000A10002308A31CA22803157
:10062000C4302100C8000030C9000330CA0088303F
:10063000CB00E830F3000330F40024004F351E3EB9
:10064000860001308700403FF500413FF6008C31C5
:100650000524803174082100CD007308CC008A3154
:100660009F228031C4302000A1000030A2008A31D6
:100670002D22803106302100D80058082000A1002A
:1006800002308A31CA22803109302000A10088302E
:10069000A2008A312D22803107302100D80058086D
:1006A0002000A10002308A31CA2280310A30F300D2
:1006B0000030F40024004F351E3E860001308700D4
:1006C000403FF500413FF6008C310524803173082E
:1006D000740403196C2B6D2BA42B6430F3000030D1
:1006E000F40024004F351E3E860001308700403F55
:1006F000F500413FF6008C31052480317308740405
:10070000031D832B842BA42BE830F3000330F4006B
:1007100024004F351E3E860001308700403FF50023
:10072000413FF6008C310524803173087404031DA9
:100730009A2B9B2BA42B01302000A1008830A20013
:100740008A312D228031F12B0A30F3000030F40081
:1007500024004F351E3E860001308700403FF500E3
:10076000413FF6008C310524803173087404031D69
:10077000BA2BBB2BF12B6430F3000030F4002400C3
:100780004F351E3E860001308700403FF500413F57
:10079000F6008C310524803173087404031DD12BBD
:1007A000D22BF12BE830F3000330F40024004F3556
:1007B0001E3E860001308700403FF500413FF600B5
:1007C0008C310524803173087404031DE82BE92B58
:1007D000F12B00302000A1008830A2008A312D22A8
:1007E0008031C4302100C8000030C9000330CA0085
:1007F0008830CB00E830F3000330F40024004F359C
:100800001E3E860001308700403FF500413FF60064
:100810008B315A23803174082100CD007308CC003D
:100820008A319F228031C4302000A1000030A20014
:100830008A312D2280310A302100D800580820004A
:10084000A10002308A31CA2280310F302000A1007D
:100850008830A2008A312D228031A830F300613027
:10086000F40089312E21803101302400CF0700307F
:10087000D03D5008803A2100D80080305802031D36
:10088000442C123024004F02031C472C482CE12931
:100890009528803127282000C5003A08CE003B0863
:1008A000CF003C08D0003D08D1003E08D2003F08F0
:1008B000D3004008D4004108D5004E3086000030F7
:1008C0008700473FC200C21B662C682C0130692C90
:1008D00000302000C300C4014308CC004408CD0010
:1008E0004C084D040319752C762C942CCE09CF0995
:1008F000D009D109D209D309D409D509CE0A031DDB
:10090000942CCF0A031D942CD00A031D942CD10AD9
:10091000031D942CD20A031D942CD30A031D942C7E
:10092000D40A031D942CD50A2300CC1B982C992C97
:100930009E2CFD302200E405FF30E50523004C0825
:10094000803A2000C20080304202031DAA2C0130F0
:1009500023004B020318AD2CAE2CB42C0130200028
:10096000C8000030C900BC2C23004C082000C9007E
:1009700023004B082000C80023004A082000CB00B9
:10098000230049082000CA004C084D04031DC92C4F
:10099000CA2CCF2C2200641DCE2CCF2CD42CFF309F
:1009A0002000CA07FF30CB3D1F302000D6000030AA
:1009B000D7002300EE01452DFF302000D607FF3081
:1009C000D73D0A30A000A101A201A301A401A50105
:1009D000A601A7014E08A8004F08A9005008AA00C8
:1009E0005108AB005208AC005308AD005408AE00EB
:1009F0005508AF008F311627843120002108F700F9
:100A00002008F6008A31112284317608303E200019
:100A1000C2005608CF3E86000130870042088100A0
:100A2000FF30C807FF30C93DFF30CA07FF30CB3D5C
:100A30000A30A000A101A201A301A401A501A60101
:100A4000A7014E08A8004F08A9005008AA005108A5
:100A5000AB005208AC005308AD005408AE00550876
:100A6000AF008631F026843120002008CE00210816
:100A7000CF002208D0002308D1002408D200250886
:100A8000D3002608D4002708D50020005708803A54
:100A9000C20080304202031D4F2D01305602031C5C
:100AA000522D532D802D20004E084F045004510428
:100AB0005204530454045504031D5F2D602DDC2C97
:100AC0004908803AC20080304202031D692D01307E
:100AD000480203186C2D6D2DDC2C20004B08803A49
:100AE000C20080304202031D772D01304A02031CF0
:100AF0007A2D7B2D802D2200E4187F2D802DDC2C7B
:100B000020004C084D04031D862D872D8C2D2200BE
:100B1000641D8B2D8C2DA92DFF302000D607FF30B2
:100B2000D73D4C084D04031D962D972D9C2D2B3041
:100B3000C6000030C700A02D2D30C6000030C70011
:100B40004608C2005608CF3E8600013087004208A2
:100B5000810020005608CF3EC2004208AD004B087D
:100B6000AF004A08AE0045088C319924843120003A
:100B70002E08BB002D08BA00080020002408A6009B
:100B80002308A500A535A60DA430A7002130A80094
:100B90002508270786002608283D87002408AA0084
:100BA0002308A900A935AA0D8230AB002130AC0082
:100BB00029082B0784002A082C3D8500003FAD0042
:100BC000013FAE002D08AE00AD01403F2D07B00043
:100BD000413F2E3DB1002408B3002308B200B235D6
:100BE000B30DCE30B4002130B50032083407860092
:100BF0003308353D87003008C03F3108C13FCA3057
:100C000086002130870001080F39043A031D092EA0
:100C10000A2E3B2E1030F3002730F4002408A600E3
:100C20002308A500A535A60DCE30A7002130A800C9
:100C30002508270786002608283D8700403FF50045
:100C4000413FF6008C310524853120002408AA009C
:100C50002308A900A935AA0DCE30AB002130AC0085
:100C600029082B0786002A082C3D87007308C03FFF
:100C70007408C13FEF2ECA3086002130870001087A
:100C80000F39033A031D452E462E772EE830F30028
:100C90000330F4002408A6002308A500A535A60DFE
:100CA000CE30A7002130A800250827078600260897
:100CB000283D8700403FF500413FF6008C31052478
:100CC000853120002408AA002308A900A935AA0D0F
:100CD000CE30AB002130AC0029082B0786002A0853
:100CE0002C3D87007308C03F7408C13FEF2ECA3007
:100CF00086002130870001080F39023A031D812E3A
:100D0000822EB32E6430F3000030F4002408A600D5
:100D10002308A500A535A60DCE30A7002130A800D8
:100D20002508270786002608283D8700403FF50054
:100D3000413FF6008C310524853120002408AA00AB
:100D40002308A900A935AA0DCE30AB002130AC0094
:100D500029082B0786002A082C3D87007308C03F0E
:100D60007408C13FEF2ECA30860021308700010889
:100D70000F39013A031DBD2EBE2EEF2E0A30F300AF
:100D80000030F4002408A6002308A500A535A60D10
:100D9000CE30A7002130A8002508270786002608A6
:100DA000283D8700403FF500413FF6008C31052487
:100DB000853120002408AA002308A900A935AA0D1E
:100DC000CE30AB002130AC0029082B0786002A0862
:100DD0002C3D87007308C03F7408C13FEF2E080008
:100DE0002000B1012030860000308700473FF3002B
:100DF000F31FFB2EFC2E1E2F2000A009A109A20923
:100E0000A309A409A509A609A709A00A031D1B2F68
:100E1000A10A031D1B2FA20A031D1B2FA30A031DDA
:100E20001B2FA40A031D1B2FA50A031D1B2FA60A97
:100E3000031D1B2FA70A2000B101B10A283086002C
:100E400000308700473FF300F31F272F282F4C2F38
:100E50002000A809A909AA09AB09AC09AD09AE0986
:100E6000AF09A80A031D472FA90A031D472FAA0A85
:100E7000031D472FAB0A031D472FAC0A031D472F45
:100E8000AD0A031D472FAE0A031D472FAF0A0130DD
:100E9000F30073082000B10632308600003087006E
:100EA0000830F30000301E00F30B532F2000200801
:100EB00021042204230424042504260427040319FE
:100EC000622F632FBF2FB001B00A722FA035A10D82
:100ED000A20DA30DA40DA50DA60DA70D0130F300C5
:100EE0007308B007A71F752F762F662FB235B30D85
:100EF000B40DB50DB60DB70DB80DB90D27082F02FD
:100F0000031D9C2F26082E02031D9C2F25082D0251
:100F1000031D9C2F24082C02031D9C2F23082B0249
:100F2000031D9C2F22082A02031D9C2F2108290241
:100F3000031D9C2F20082802031C9F2FA02FB12FD8
:100F40002008A8022108A93B2208AA3B2308AB3BA2
:100F50002408AC3B2508AD3B2608AE3B2708AF3B39
:100F60003214A736A60CA50CA40CA30CA20CA10C41
:100F7000A00C0130B002031DBE2FBF2F762F310809
:100F80000319C32FC42FE22FB209B309B409B5095D
:100F9000B609B709B809B909B20A031DE22FB30AA5
:100FA000031DE22FB40A031DE22FB50A031DE22F31
:100FB000B60A031DE22FB70A031DE22FB80A031D6C
:100FC000E22FB90A20003208A0003308A10034083B
:100FD000A2003508A3003608A4003708A500380889
:100FE000A6003908A7000800640080010131013023
:100FF000FE020030FF3B7F087E04031DF52F003406
:101000003034303400342534643400344E346F349A
:1010100000342E3400343A3400345E3400347634F4
:0210200000349A
:10118E008931DD218831080022001D121D1608004C
:10119E0089313A21883123001114080089313A210E
:1011AE00883123001115080074082400C800730844
:1011BE00C700080074082400CC007308CB00080098
:1011CE0074082400CA007308C900080074082400BB
:1011DE00CE007308CD000800F4007408893119217F
:1011EE008831080020001C08F3007308F40074080E
:1011FE0008002F0096019701980199019A019B0111
:10120E0008000134033400340334003411347534CF
:10121E00C634623031008D008F019101023093008F
:10122E0092010800F3002E000F1E1E291F291A29F5
:10123E00730822009A0008002830230090009101C4
:10124E008F170F1706308D00FF308E0008003329E0
:10125E000130F3020030F43B73087404031D382987
:10126E0039292F29080023000F193E293F293A2931
:10127E0011081F39031D442945293A290800013058
:10128E008931AC2189312830F3000030F4008931E6
:10129E002E21893108006E3020009F0079309D008C
:1012AE009C012E008C12803020009E000800F3005E
:1012BE0089313A218931730823008C002E000F1CCE
:1012CE0069296A2965290F10230011080800F40006
:1012DE008831CF20893123004D0889315E21893133
:1012EE0074082400510489315E2189318831D5205A
:1012FE00893108008931002189318B318F23893161
:10130E008931102189318931522189318A31F9226D
:10131E0089318931232189310800F60023004E08D6
:10132E00F5007508F6047608043889316E21893186
:10133E007608FB3989316E2189313230F300003065
:10134E00F40089312E21893108002000A0002300ED
:10135E00CE0120002008F0398931942189312000F6
:10136E002008F7000330F735FF3E031DBA29773505
:10137E00F03989319421893108002000A000230022
:10138E00CE01CE0A20002008F0398931942189310E
:10139E0020002008F7000330F735FF3E031DD32948
:1013AE007735F039893194218931080022001908E6
:1013BE00F0007A08203E8600023087007008810017
:1013CE000130F0007008FA0727307A02031CF0296A
:1013DE00F129F229FA010130F0007008F80708002F
:1013EE00F7007708F5007508F600012A0130F500C0
:1013FE007508F70777088600013087000108031D7E
:10140E00092A0A2AFD2976087702F300F401F31B54
:10141E00F40308007708803A2000B00080303002D4
:10142E00031D1B2A0130760203181E2A1F2A2C2A9E
:10143E0076092000B0007709B100B00A0319B10A8D
:10144E003008F6003108F7002C2A08002000A4010D
:10145E00A501402A2108240784002208253D850085
:10146E0000088931C4218A3101302000A4070030E0
:10147E00A53D2108240784002208253D8500120081
:10148E00031D4A2A4B2A312A08002000AC00AA016B
:10149E00AB01642A2908A600A7012608F500270833
:1014AE00F6002508A8002808F7008C3142248A315E
:1014BE0001302000AA070030AB3D2A082C07A600F9
:1014CE0026088600013087000108A7002708A9001A
:1014DE002908031D732A742A512A08007808031953
:1014EE00792A7A2A752A7908A03E8600013087006B
:1014FE000108F30073082200E7007908203E8600F9
:10150E00023087000108F3007308F4000130F30085
:10151E007308F90727307902031C962A972A982A0E
:10152E00F9012E0099120130F8029916740808007C
:10153E00CC302100CE004E08D1004908D300480817
:10154E00D200D401D501D601D7014B082000E90005
:10155E0021004A082000E800D1302100CE004E08BC
:10156E002000EA00D2308B3129238A310230D23E5C
:10157E0086008701403F210048078400413F493DD6
:10158E008500800108002000A400E52A2108BF3E46
:10159E008931AC218A31F82A2108933E8931AC2158
:1015AE008A31F82A2108D33E8931AC218A31F82AB2
:1015BE0021087F3E8931AC218A31F82A2408A20005
:1015CE00A3012308003A0319ED2ADF2A2208023A62
:1015DE000319CD2A013A0319D32A073A0319D92A36
:1015EE00DF2A08002E009912C830F3000B30F400E9
:1015FE008831ED208A31083022009F0090309D0006
:10160E0024309E0019309B009C010230F300003004
:10161E00F4008831E1208A31CB30F3000830F40039
:10162E008831E7208A31C730F3000830F400883162
:10163E00DB208A312200E701FA01F901F8012E00C0
:10164E00991608002000ED006908EF006808EE000A
:10165E002300C701C801472B6E30EB006B08D80082
:10166E006A08EC006C08D9006D088E3139268B3172
:10167E00200058082300C707200059082300C83D42
:10168E0020006E0884006F0885001200031D502B89
:10169E00512B332B230048082000E9002300470874
:1016AE002000E80008007308740403195F2B602BF8
:1016BE008A2B2000A001A00A6D2B0130F335F40D0A
:1016CE00890B652B0130F7007708A007F41F702BEC
:1016DE00712B642B74087602031D772B7308750229
:1016EE00031C7A2B7B2B7F2B7308F5027408F63BB9
:1016FE000130F436F30C890B802B0130A002031D50
:10170E00892B8A2B712B7608F4007508F3000800DC
:10171E0020008C01960197019801F1309100FF3065
:10172E009200BF30930027303E00CE00FF30C30042
:10173E00F130B800E501C401B901CF01BA01C5010C
:10174E00D001FF30BB00FF30C600FF30D100FF30AC
:10175E00BC00FF30C700FF30D2000830E800173061
:10176E003D00CB0010303E00A60013303D00C500FA
:10177E0014303E00A3001530A40014303D00C60006
:10178E0008007A08A03E8600013087008101220001
:10179E001D1DD22BD32BDF2B7A08A03E86000130E5
:1017AE008700811424004C088A004B080A008B31F4
:1017BE0022009D1CE32BE42BF02B7A08A03E860022
:1017CE0001308700011524004A088A0049080A00E2
:1017DE008B317A08A03E860001308700010803197C
:1017EE00F92BFA2B012C240048088A0047080A001E
:1017FE008B31042C8931DD218B3108002000A101B1
:10180E00A2017308740403190D2C0E2C3D2CA0019B
:10181E00A00A1A2C0130F335F40D890B122C01306D
:10182E00F7007708A007F41F1D2C1E2C112C013079
:10183E00A135A20D890B1F2C74087602031D292CCD
:10184E0073087502031C2C2C2D2C322C7308F502F8
:10185E007408F63B21140130F436F30C890B332C4B
:10186E000130A002031D3C2C3D2C1E2C2208F4003E
:10187E002108F300080077080319462C472C4C2C3E
:10188E007708031D4B2C4C2C512C75088831F320F6
:10189E008C31982C7708043E8600870116000104CF
:1018AE0003195A2C5B2C7A2C7708043E860087018C
:1018BE00403F2000A000413FA1007708023E860075
:1018CE008701403FA200413FA3002308803AA400B5
:1018DE002108803A2402031D762C200822020318C8
:1018EE00792C7A2C982C7708023E8600870177088F
:1018FE0084008501403F00072000A0000131413FD8
:10190E00003DA1002008860021088700750881008F
:10191E007708023E860087010130810741310318A6
:10192E00810A08002000B5002200641C9F2CA02C08
:10193E00A92C20003508B0003008A5002D088A31EA
:10194E004C228C312000AF1BAD2CAE2CB32C2F08AB
:10195E00B4002E08B300B52CB301B401B101B2012D
:10196E00C92C2030F5000030F60020003508B000FC
:10197E003008F7008C3142248C3101302000B10741
:10198E000030B23D3208803AB0003408803A30025E
:10199E00031DD32C33083102031CD62CD72CB82CA4
:1019AE0022006418DB2CDC2CE52C20003508B0005E
:1019BE003008A5002D088A314C228C3120002D08CC
:1019CE008931F7218C31200033087307AD003408BC
:1019DE00743DAE0008008D31C8258C312000AE015B
:1019EE00AF0120002F08A9002E08A800A835A90DC8
:1019FE00CE30AA002130AB0028082A07860029081D
:101A0E002B3D87002030423E840001308500403F50
:101A1E000002AC000131413F003BAD0000302D0211
:101A2E00963003192C02031C1D2D1E2D262D2E352E
:101A3E00A03E860087010130C03F0030C13F2F0815
:101A4E00A9002E08A800A835A90DCE30AA00213075
:101A5E00AB0028082A07860029082B3D8700203076
:101A6E00423E840001308500403F0002AC0001314F
:101A7E00413F003BAD002E35203E860001308700F1
:101A8E002C08C03F2D08C13F0130AE070030AF3DDE
:101A9E002F08803AA80080302802031D582D1130DF
:101AAE002E02031C5B2D5C2DF82C08002000A200DA
:101ABE002208A10021082300CD00003089316E21BB
:101ACE008D31B830F3000B30F40089312E218D3179
:101ADE0003308931AC218D31F430F3000130F40044
:101AEE0089312E218D3103308931AC218D31F43085
:101AFE00F3000130F40089312E218D31033089310C
:101B0E00AC218D31F430F3000130F40089312E21F7
:101B1E008D3102308931AC218D31F430F30001303A
:101B2E00F40089312E218D3128308931AC218D314F
:101B3E008830F3001330F40089312E218D310C30B2
:101B4E008931AC218D318830F3001330F4008931A6
:101B5E002E218D3101308931AC218D318830F30049
:101B6E001330F40089312E218D3106308931AC21AC
:101B7E008D318830F3001330F40089312E218D31F0
:101B8E00080010302000A4000030A5002000A6019F
:101B9E00A701122E20002635423E86000130870016
:101BAE00403FF300413FF4002635443E86000130AD
:101BBE008700403FF500413FF60074087602031D92
:101BCE00EA2D730875020318ED2DEE2D0E2E263517
:101BDE00423E860001308700403FA000413FA100F9
:101BEE002635443E8600013087002635423E84006D
:101BFE0001308500403F803F413F813F2635443EC6
:101C0E008600013087002008C03F2108C13F013007
:101C1E00A6070030A73D2408FF3EF300FF30253D08
:101C2E00F4007408803AF5002708803A7502031D07
:101C3E00222E260873020318252E262ED12DFF30B4
:101C4E002000A407FF30A53D2508803AF300803020
:101C5E007302031D342E013024020318372E382E42
:101C6E00CD2D08002000E700580886008701403F70
:101C7E00DA00413FDB005A0884005B088500120041
:101C8E00253A031D4B2E4C2EF22E58088600870146
:101C9E000130810741310318810A2300C901CA01AD
:101CAE002200E401E501FF302300CB00FF30CC0021
:101CBE002000580886008701403FDA00413FDB00D4
:101CCE005A0884005B0885001200643A0319702ECE
:101CDE00712E822E580886008701403FDA00413F60
:101CEE00DB005A0884005B0885001200693A031D68
:101CFE00812E822EBD2E5808860087010130810765
:101D0E0041310318810A59088600870101088400B1
:101D1E00850102308107003FDA00013FDB005A08DF
:101D2E00DF005B08E000890D893B8909E100E200D4
:101D3E00E300E400E500E6005F08BA006008BB00BF
:101D4E006108BC006208BD006308BE006408BF00E5
:101D5E006508C0006608C100670884314B248E31C7
:101D6E0020003B08D9003A08D800152F58088600E5
:101D7E008701403FDA00413FDB005A0884005B08D0
:101D8E0085001200253A031DCD2ECE2EE72E5808C3
:101D9E00860087010130810741310318810A253001
:101DAE00F5000030F6006708DA005A08F7008C31AB
:101DBE0042248E3101302000D8000030D900152F7A
:101DCE005808860087010130810741310318810AC6
:101DDE00D801D901152F580886008701403FDA0037
:101DEE00413FDB005A0884005B0885000008DC00D8
:101DFE00DD015C08F5005D08F6006708DE005E0890
:101E0E00F7008C3142248E3120005808860087015D
:101E1E000130810741310318810AE12E0800F501D6
:101E2E002830860000308700473FF300F31F202F35
:101E3E00212F422F2000A809A909AA09AB09AC0934
:101E4E00AD09AE09AF09A80A031D402FA90A031D4B
:101E5E00402FAA0A031D402FAB0A031D402FAC0AC8
:101E6E00031D402FAD0A031D402FAE0A031D402F48
:101E7E00AF0AF501F50A2030860000308700473F93
:101E8E00F300F31F4B2F4C2F6B2F2000A009A1093D
:101E9E00A209A309A409A509A609A709A00A031D59
:101EAE006B2FA10A031D6B2FA20A031D6B2FA30A12
:101EBE00031D6B2FA40A031D6B2FA50A031D6B2F89
:101ECE00A60A031D6B2FA70A200020082104220456
:101EDE00230424042504260427040319772F782FBE
:101EEE00CB2FF401F40A872FA035A10DA20DA30D5F
:101EFE00A40DA50DA60DA70D0130F3007308F40770
:101F0E00A71F8A2F8B2F7B2F27082F02031DA92F88
:101F1E0026082E02031DA92F25082D02031DA92F09
:101F2E0024082C02031DA92F23082B02031DA92F01
:101F3E0022082A02031DA92F21082902031DA92FF9
:101F4E0020082802031CAC2FAD2FBD2F2008A8029D
:101F5E002108A93B2208AA3B2308AB3B2408AC3B33
:101F6E002508AD3B2608AE3B2708AF3BA736A60C8F
:101F7E00A50CA40CA30CA20CA10CA00C0130F40215
:101F8E00031DCA2FCB2F8B2F75080319CF2FD02FE0
:101F9E00EE2FA809A909AA09AB09AC09AD09AE092A
:101FAE00AF09A80A031DEE2FA90A031DEE2FAA0AD8
:101FBE00031DEE2FAB0A031DEE2FAC0A031DEE2FF1
:101FCE00AD0A031DEE2FAE0A031DEE2FAF0A200041
:101FDE002808A0002908A1002A08A2002B08A300A7
:101FEE002C08A4002D08A5002E08A6002F08A70077
:021FFE000800D9
:020000040001F9
:0A000E00EC3FFF3F9F3FFF3FFF3F25
:00000001FF
