:020000040000FA
:0400000080312728FC
:100008007E1480310B1F09280A2825282E00991EE6
:100018000E280F2825288F1E12281328252820008F
:1000280051088A0050080A00803103102000961CED
:1000380003140318202823282000961425282000BC
:1000480096107E10090080312928F330840083300F
:1000580085001200D2001200D3001200D400120052
:10006800D5001200D6001200D7001200D8001200E6
:10007800D9007C308400213085007430FE000030C7
:10008800FF008331C8238031F701F801F901DA0153
:10009800DB01DC01DD01DE01DF01A030840000307E
:1000A80085004930FE000030FF008331C8238031CD
:1000B80020308400013085004930FE000030FF0008
:1000C8008331C82380317E10200080316B28833132
:1000D800B82380318B170B17523086000030870009
:1000E800383084000030850008302000B200160047
:1000F8001A00B20B7B28C601C70184310324803162
:10010800003A031D88288928A8282000C401C501B1
:1001180020004408383E8600870101088331E02327
:100128008031000001302000C4070030C53D45087B
:10013800803AB20080303202031DA42808304402FD
:10014800031CA728A8288C2827307706031DAD286C
:10015800AE2881287C302000C2002130C300F52859
:100168008331752380312000B200B3014208860034
:10017800430887003208C03F3308C13F0130C60733
:100188000030C73D4708803AB20080303202031D74
:10019800CF2804304602031CD228D328E1282000A7
:1001A8004708803AB20080303202031DDD2827302C
:1001B8004602031CE028E128E72802302000C20795
:1001C8000030C33DF52820004618EB28EC28F1281C
:1001D8002230C2070030C33DF5282030C20200306B
:1001E800C33B7708031DF928FA28B428C801C901B8
:1001F80020004908F4004808F30082319B2280312E
:1002080020004908B3004808B200B235B30DCE301B
:10021800B4002130B5003208340786003308353D74
:1002280087004835C73E84008501403F803F413FF5
:10023800813F0130C8070030C93D4908803AB20003
:1002480080303202031D2A2912304802031C2D294E
:100258002E29FC282000C801C90120004908B30044
:100268004808B200B235B30DCE30B4002130B50025
:100278003208340786003308353D8700403FB60012
:10028800413FB7000D303702AC3003193602031C6A
:100298004E294F2950290C144908B3004808B200C8
:1002A800B235B30DCE30B4002130B5003208340772
:1002B80086003308353D8700403FB600413FB70010
:1002C80009303702C5300319360203186C296D2925
:1002D8006E298C140130C8070030C93D4908803A9E
:1002E800B20080303202031D7B2912304802031C01
:1002F8007E297F293129823133228031812880313A
:10030800272874082000A9007308A8007608A70009
:100318007508A6007335C73E86008701403FA400D4
:10032800413FA5000F2AFF302000A607FF30A73D58
:100338002635C73E86008701403FA000413FA10007
:1003480021082502031DAA29200824020318AD2923
:10035800AE29C2292908803AA0002708803A20023D
:10036800031DB82926082802031CBB29BC29972984
:10037800C22901302000A8070030A93D20002835F7
:10038800C73E86008701403FA000413FA1002108E9
:100398002502031DD12920082402031CD429D529AC
:1003A800E3292908803AA0002708803A2002031D83
:1003B800DF2926082802031CE229E329BD29200099
:1003C8002908803AA0002708803A2002031DEE2958
:1003D800260828020318F129F2290F2A20002835B7
:1003E800C73E86008701403FA200413FA300263553
:1003F800C73E860087012835C73E84008501403FF7
:10040800803F413F813F2635C73E8600870122084D
:10041800C03F2308C13F200027082906031D162ACC
:1004280026082806031D192A1A2A9C292835C73E9A
:10043800860087017335C73E84008501403F803FB1
:10044800413F813F2835C73E860087012408C03FC9
:100458002508C13F2908DB002808DA000800003019
:10046800F300F4001130F5000030F60081318521E9
:1004780082310030F300F40020005A08FF3EF500F6
:10048800FF305B3DF60081318521823120005A081A
:10049800013EF30000305B3DF4001130F500003000
:1004A800F6008131852182312000B001B1012000A0
:1004B8003108AB003008AA00AA35AB0DCE30AC002D
:1004C8002130AD002A082C0786002B082D3D870017
:1004D8002030C73E84008501403F0002AE00013154
:1004E800413F003BAF0000302F02963003192E0227
:1004F800031C7F2A802A892A3035473E860001302E
:1005080087000130C03F0030C13F0130B0070030E4
:10051800B13D3108803AAA0080302A02031D962A8C
:1005280012303002031C992A9A2A5B2A08007408A0
:100538002000A1007308A000A035A10DA430A200DE
:100548002130A3002008220786002108233D8700C8
:100558007408A5007308A400A435A50D8230A60070
:100568002130A7002408260784002508273D850098
:10057800003FA800013FA9002808A900A801403FA2
:100588002807AB00413F293DAC007408AE00730852
:10059800AD00AD35AE0DCE30AF002130B0002D0826
:1005A8002F0786002E08303D87002B08C03F2C08F7
:1005B800C13F08007908A03E86008701810122001A
:1005C8001D1DE72AE82AF32A7908A03E860087013C
:1005D800811420004F088A004E080A008231220048
:1005E8009D1CF72AF82A032B7908A03E860087016C
:1005F800011520004D088A004C080A00833179084B
:10060800A03E86008701010803190B2B0C2B132B26
:1006180020004B088A004A080A008331162B8331D0
:100628009E23823108002E009912DE30F30002303A
:10063800F40084310A248331083022009F0090306E
:100648009D0024309E0019309B009C012A30F30045
:100658000430F4008431162483312230F30004304E
:10066800F4008431102483312630F3000430F40080
:1006780084311C2483312000DF01F901F801F701DE
:100688002E009916080020008C0196019701980108
:10069800F1309100FF309200BF3093003F303E00B0
:1006A800CE00FF30C300F130B800E501C401B90144
:1006B800CF01BA01C501D001FF30BB00FF30C60031
:1006C800FF30D100FF30BC00FF30C700FF30D20040
:1006D8000830E80017303D00CB0010303E00A6007F
:1006E800080077080319792B7A2B752B7808A03E18
:1006F800860087010108F30073082000DF007808EE
:10070800203E8600013087000108F3007308F400DA
:100718000130F3007308F80727307802031C952B83
:10072800962B972BF8012E0099120130F702991693
:100738007408080022001908F0007908203E860095
:1007480001308700700881000130F0007008F90757
:1007580027307902031CB12BB22BB32BF9010130DE
:10076800F0007008F70708008331FB2383318331D9
:10077800472383318331EA2383318331D42383317F
:10078800833117238331080064008001013101306F
:10079800FE020030FF3B7F087E04031DC92B003496
:1007A8006E3020009F0079309D009C012E008C1235
:1007B800803020009E000800F3002E000F1EE52B5D
:1007C800E62BE12B730822009A0008006230310002
:1007D8008D008F01910102309300920108000134CD
:1007E800033400340334003411349F349C342F0014
:1007F80096019701980199019A019B010800200030
:100808001C08F3007308F40074080800740820003A
:10081800D1007308D000080074082000CD007308C8
:10082800CC00080074082000CF007308CE00080030
:1008380074082000CB007308CA00080022001D12AB
:0E0848001D16080083319E238431080008002D
:020000040001F9
:0A000E00EC3FFF3F9F3FFF3FFF3F25
:00000001FF
