:020000040000FA
:0400000080312728FC
:100008007E1480310B1F09280A2825282E00991EE6
:100018000E280F2825288F1E12281328252820008F
:1000280059088A0058080A00803103102000961CDD
:1000380003140318202823282000961425282000BC
:1000480096107E10090080312928EE308400843013
:1000580085001200C9001200CA001200CB0012006D
:10006800CC001200CD001200CE001200CF0012000A
:10007800D0001200D1007C3084002130850074301B
:10008800FE000030FF008431A9248031F801F90115
:10009800FA01DA01DB01DC01DD01DE01DF01A0305C
:1000A8008400003085004930FE000030FF008431B4
:1000B800A924803120308400013085004930FE00B9
:1000C8000030FF008431A92480317E102000803167
:1000D8006D288431732480318B170B1749308600C3
:1000E8000030870037308400003085000830200059
:1000F800B10016001A00B10B7D28C501C601853173
:1001080008258031003A031D8A288B28AA28200058
:10011800C301C40120004308373E86008701010857
:100128008431E4248031000001302000C30700300E
:10013800C43D4408803AB10080303102031DA6282E
:1001480008304302031CA928AA288E2827307806DD
:10015800031DAF28B02883287C302000C10021303F
:10016800C200F7288331CC2380312000B100B201CE
:1001780041088600420887003108C03F3208C13F65
:100188000130C5070030C63D4608803AB1008030CE
:100198003102031DD12804304502031CD428D52878
:1001A800E32820004608803AB10080303102031D60
:1001B800DF2827304502031CE228E328E92802301B
:1001C8002000C1070030C23DF72820004518ED285F
:1001D800EE28F3282230C1070030C23DF72820302E
:1001E800C1020030C23B7808031DFB28FC28B62852
:1001F800C701C80120004808F4004708F30082310D
:10020800B822803120004808B2004708B100B13553
:10021800B20DCE30B3002130B40031083307860068
:100228003208343D87004735C73E84008501403F8A
:10023800803F413F813F0130C7070030C83D480833
:10024800803AB10080303102031D2C291230470258
:10025800031C2F293029FE282000C701C8012000CF
:100268004808B2004708B100B135B20DCE30B3002E
:100278002130B4003108330786003208343D870046
:10028800403FB500413FB6000D303602AC3003198F
:100298003502031C5029512952290C154808B2006F
:1002A8004708B100B135B20DCE30B3002130B400EB
:1002B8003108330786003208343D8700403FB500D7
:1002C800413FB60009303602C5300319350203181C
:1002D8006E296F2970298C150130C7070030C83D79
:1002E8004808803AB10080303102031D7D29123060
:1002F8004702031C802981293329823172228031E7
:100308004E308231082280312000A101A10A01303B
:1003180083319D23803120004708B100B2013108A4
:10032800A1003208A2008331F5238031832880316F
:10033800272810302000A4000030A5002000A601C6
:10034800A701E12920002635C73E86008701403FE6
:10035800F300413FF4002635C93E86008701403F3F
:10036800F500413FF60074087602031DBD297308A5
:1003780075020318C029C129DD292635C73E860024
:100388008701403FA000413FA1002635C93E8600B5
:1003980087012635C73E84008501403F803F413FA5
:1003A800813F2635C93E860087012008C03F2108C5
:1003B800C13F0130A6070030A73D2408FF3EF300E7
:1003C800FF30253DF4007408803AF5002708803A8C
:1003D8007502031DF129260873020318F429F5296B
:1003E800A629FF302000A407FF30A53D2508803A44
:1003F800F30080307302031D032A0130240203181E
:10040800062A072AA22908002000A2002208A10023
:100418002108DC000030843186248231B830F300B2
:100428000B30F4008431CD248231033084315D24D3
:100438008231F430F3000130F4008431CD2482316C
:10044800033084315D248231F430F3000130F4004C
:100458008431CD248231033084315D248231F430FB
:10046800F3000130F4008431CD248231023084312C
:100478005D248231F430F3000130F4008431CD245E
:100488008231283084315D2482318830F300133082
:10049800F4008431CD2482310C3084315D248231E2
:1004A8008830F3001330F4008431CD2482310130D8
:1004B80084315D2482318830F3001330F4008431B4
:1004C800CD248231063084315D2482318830F300B6
:1004D8001330F4008431CD248231080081319D210C
:1004E80082312000AE01AF0120002F08A9002E089C
:1004F800A800A835A90DCE30AA002130AB002808E5
:100508002A07860029082B3D87002030C73E840033
:100518008501403F0002AC000131413F003BAD0086
:1005280000302D02963003192C02031C9C2A9D2AA8
:10053800A62A2E35473E8600013087000130C03F8D
:100548000030C13F0130AE070030AF3D2F08803A80
:10055800A80080302802031DB32A12302E02031C83
:10056800B62AB72A782A080074082000A100730860
:10057800A000A035A10DA430A2002130A3002008BE
:10058800220786002108233D87007408A500730808
:10059800A400A435A50D8230A6002130A7002408A8
:1005A800260784002508273D8500003FA800013F55
:1005B800A9002808A900A801403F2807AB00413F2F
:1005C800293DAC007408AE007308AD00AD35AE0D22
:1005D800CE30AF002130B0002D082F0786002E083E
:1005E800303D87002B08C03F2C08C13F0800200081
:1005F8008C01960197019801F1309100FF3092002B
:10060800BF30930027303E00CE00FF30C300F130EA
:10061800B800E501C401B901CF01BA01C501D00193
:10062800FF30BB00FF30C600FF30D100FF30BC00F8
:10063800FF30C700FF30D2000830E80017303D0017
:10064800CB0010303E00A60013303D00C50014302A
:100658003E00A3001530A40014303D00C600080079
:100668007A08A03E86008701810122001D1D3D2BCE
:100678003E2B492B7A08A03E860087018114200072
:1006880057088A0056080A00833122009D1C4D2B0A
:100698004E2B592B7A08A03E8600870101152000B1
:1006A80055088A0054080A0083317A08A03E86005B
:1006B800870101080319612B622B692B200053085D
:1006C8008A0052080A0083316C2B84311424833148
:1006D80008002E0099123430F3000330F4008531FD
:1006E8000F258331083022009F0090309D00243070
:1006F8009E0019309B009C013B30F3000530F4004C
:1007080085311B2583313330F3000530F400853102
:10071800152583313730F3000530F4008531212564
:1007280083312000DF01FA01F901F8012E00991642
:1007380008002000A400B82B2108BF3E84315D24A6
:100748008331CB2B2108933E84315D248331CB2B1D
:100758002108D33E84315D248331CB2B21087F3E91
:1007680084315D248331CB2B2408A200A301230804
:10077800003A0319C02BB22B2208023A0319A02B06
:10078800013A0319A62B073A0319AC2BB22B080020
:1007980078080319D02BD12BCC2B7908A03E8600E2
:1007A80087010108F30073082000DF007908203E64
:1007B8008600013087000108F3007308F400013057
:1007C800F3007308F90727307902031CEC2BED2B93
:1007D800EE2BF9012E0099120130F80299167408CF
:1007E80008002000A301A401082C23082107860083
:1007F8002408223D870001088431462483310130D2
:100808002000A3070030A43D230821078600240800
:10081800223D87000108031D122C132CF92B080018
:1008280022001908F0007A08203E8600013087006F
:10083800700881000130F0007008FA0727307A024A
:10084800031C272C282C292CFA010130F0007008F1
:10085800F8070800F60020005D08F5007508F604A2
:10086800760804388431862484317608FB3984314B
:10087800862484313230F3000030F4008431CD24F2
:10088800843108002000A000DD01DD0A2008F039CD
:1008980084312E24843120002008F7000330F735F6
:1008A800FF3E031D532C7735F03984312E248431D3
:1008B80008002000A000DD012008F03984312E2432
:1008C800843120002008F7000330F735FF3E031D70
:1008D800692C7735F03984312E248431080085312C
:1008E800002584318231FB2284318431F72484311C
:1008F8008431B524843183316D2384318431D92402
:1009080084310800F40085312D25843120005C08ED
:100918008431992484317408200051048431992445
:1009280084318531272584310800F3008431C124BE
:100938008431730823008C002E000F1CA42CA52CD6
:10094800A02C0F1023001108080064008001013159
:100958000130FE020030FF3B7F087E04031DAA2CF5
:1009680000346E3020009F0079309D009C012E00DD
:100978008C12803020009E00080023000F19C52C1F
:10098800C62CC12C11081F39031DCB2CCC2CC12C13
:100998000800D22C0130F3020030F43B73087404D1
:1009A800031DD72CD82CCE2C08002830230090000B
:1009B80091018F170F1706308D00FF308E00080049
:1009C800F3002E000F1EE92CEA2CE52C73082200F8
:1009D8009A0008000134033400340334003411341D
:1009E8007534C6340834623031008D008F019101AE
:1009F80002309300920108002F0096019701980198
:100A080099019A019B01080020001C08F300730853
:100A1800F4007408080074082000D9007308D8008E
:100A2800080074082000D5007308D4000800740872
:100A38002000D7007308D600080074082000D300EF
:100A48007308D20008008431C124853123001115B0
:100A580008008431C12485312300111408002200C4
:100A68001D121D1608008431142485310800080061
:020000040001F9
:0A000E00EC3FFF3F9F3FFF3FFF3F25
:00000001FF
